{
  "contractName": "Dwetransfer",
  "abi": [
    {
      "inputs": [],
      "stateMutability": "nonpayable",
      "type": "constructor"
    },
    {
      "anonymous": false,
      "inputs": [
        {
          "indexed": false,
          "internalType": "uint256",
          "name": "id",
          "type": "uint256"
        },
        {
          "indexed": false,
          "internalType": "string",
          "name": "fileUrl",
          "type": "string"
        }
      ],
      "name": "FileGetCid",
      "type": "event"
    },
    {
      "anonymous": false,
      "inputs": [
        {
          "indexed": false,
          "internalType": "uint256",
          "name": "id",
          "type": "uint256"
        },
        {
          "indexed": false,
          "internalType": "address",
          "name": "tweeter",
          "type": "address"
        },
        {
          "indexed": false,
          "internalType": "string",
          "name": "fileUrl",
          "type": "string"
        }
      ],
      "name": "tweetPublished",
      "type": "event"
    },
    {
      "inputs": [],
      "name": "owner",
      "outputs": [
        {
          "internalType": "address",
          "name": "",
          "type": "address"
        }
      ],
      "stateMutability": "view",
      "type": "function",
      "constant": true
    },
    {
      "inputs": [
        {
          "internalType": "uint256",
          "name": "id",
          "type": "uint256"
        }
      ],
      "name": "getFile",
      "outputs": [
        {
          "internalType": "uint256",
          "name": "",
          "type": "uint256"
        },
        {
          "internalType": "string",
          "name": "",
          "type": "string"
        },
        {
          "internalType": "address",
          "name": "",
          "type": "address"
        }
      ],
      "stateMutability": "payable",
      "type": "function",
      "payable": true
    },
    {
      "inputs": [
        {
          "internalType": "string",
          "name": "fileUrl",
          "type": "string"
        }
      ],
      "name": "addTweet",
      "outputs": [
        {
          "internalType": "uint256",
          "name": "",
          "type": "uint256"
        }
      ],
      "stateMutability": "payable",
      "type": "function",
      "payable": true
    }
  ],
  "bytecode": "0x608060405234801561001057600080fd5b506000600181905550336000806101000a81548173ffffffffffffffffffffffffffffffffffffffff021916908373ffffffffffffffffffffffffffffffffffffffff160217905550610c5b806100686000396000f3fe6080604052600436106100345760003560e01c80632bfda3131461003957806359ee12bc1461006b5780638da5cb5b1461009b575b600080fd5b610053600480360381019061004e9190610681565b6100c6565b604051610062939291906108c2565b60405180910390f35b61008560048036038101906100809190610638565b610357565b6040516100929190610869565b60405180910390f35b3480156100a757600080fd5b506100b06104ec565b6040516100bd91906107ee565b60405180910390f35b6000606060006001548410610110576040517f08c379a000000000000000000000000000000000000000000000000000000000815260040161010790610809565b60405180910390fd5b6702c68af0bb140000341461015a576040517f08c379a000000000000000000000000000000000000000000000000000000000815260040161015190610829565b60405180910390fd5b600060026000868152602001908152602001600020905060008054906101000a900473ffffffffffffffffffffffffffffffffffffffff1673ffffffffffffffffffffffffffffffffffffffff166108fc67016345785d8a00009081150290604051600060405180830381858888f193505050501580156101df573d6000803e3d6000fd5b508060010160009054906101000a900473ffffffffffffffffffffffffffffffffffffffff1673ffffffffffffffffffffffffffffffffffffffff166108fc67016345785d8a00009081150290604051600060405180830381858888f19350505050158015610252573d6000803e3d6000fd5b507fccd17471c1b75b2d81b292f8f9bc80abda16c2aca09babb86eaca475ac4ec9378582600201604051610287929190610900565b60405180910390a18060000154816002018260010160009054906101000a900473ffffffffffffffffffffffffffffffffffffffff168180546102c990610a35565b80601f01602080910402602001604051908101604052809291908181526020018280546102f590610a35565b80156103425780601f1061031757610100808354040283529160200191610342565b820191906000526020600020905b81548152906001019060200180831161032557829003601f168201915b50505050509150935093509350509193909250565b600067016345785d8a000034146103a3576040517f08c379a000000000000000000000000000000000000000000000000000000000815260040161039a90610849565b60405180910390fd5b60006002600060015481526020019081526020016000209050338160010160006101000a81548173ffffffffffffffffffffffffffffffffffffffff021916908373ffffffffffffffffffffffffffffffffffffffff160217905550600154816000018190555082816002019080519060200190610422929190610510565b507f76402d6ca204719e948431e0a8aea4ef46a414c73b9477235f4098a7e9211d6a600154338560405161045893929190610884565b60405180910390a16001600081548092919061047390610a98565b919050555060008054906101000a900473ffffffffffffffffffffffffffffffffffffffff1673ffffffffffffffffffffffffffffffffffffffff166108fc349081150290604051600060405180830381858888f193505050501580156104de573d6000803e3d6000fd5b508060000154915050919050565b60008054906101000a900473ffffffffffffffffffffffffffffffffffffffff1681565b82805461051c90610a35565b90600052602060002090601f01602090048101928261053e5760008555610585565b82601f1061055757805160ff1916838001178555610585565b82800160010185558215610585579182015b82811115610584578251825591602001919060010190610569565b5b5090506105929190610596565b5090565b5b808211156105af576000816000905550600101610597565b5090565b60006105c66105c184610955565b610930565b9050828152602081018484840111156105e2576105e1610b73565b5b6105ed8482856109f3565b509392505050565b600082601f83011261060a57610609610b6e565b5b813561061a8482602086016105b3565b91505092915050565b60008135905061063281610c0e565b92915050565b60006020828403121561064e5761064d610b7d565b5b600082013567ffffffffffffffff81111561066c5761066b610b78565b5b610678848285016105f5565b91505092915050565b60006020828403121561069757610696610b7d565b5b60006106a584828501610623565b91505092915050565b6106b7816109b7565b82525050565b60006106c88261099b565b6106d281856109a6565b93506106e2818560208601610a02565b6106eb81610b82565b840191505092915050565b6000815461070381610a35565b61070d81866109a6565b94506001821660008114610728576001811461073a5761076d565b60ff198316865260208601935061076d565b61074385610986565b60005b8381101561076557815481890152600182019150602081019050610746565b808801955050505b50505092915050565b6000610783600b836109a6565b915061078e82610b93565b602082019050919050565b60006107a66017836109a6565b91506107b182610bbc565b602082019050919050565b60006107c96017836109a6565b91506107d482610be5565b602082019050919050565b6107e8816109e9565b82525050565b600060208201905061080360008301846106ae565b92915050565b6000602082019050818103600083015261082281610776565b9050919050565b6000602082019050818103600083015261084281610799565b9050919050565b60006020820190508181036000830152610862816107bc565b9050919050565b600060208201905061087e60008301846107df565b92915050565b600060608201905061089960008301866107df565b6108a660208301856106ae565b81810360408301526108b881846106bd565b9050949350505050565b60006060820190506108d760008301866107df565b81810360208301526108e981856106bd565b90506108f860408301846106ae565b949350505050565b600060408201905061091560008301856107df565b818103602083015261092781846106f6565b90509392505050565b600061093a61094b565b90506109468282610a67565b919050565b6000604051905090565b600067ffffffffffffffff8211156109705761096f610b3f565b5b61097982610b82565b9050602081019050919050565b60008190508160005260206000209050919050565b600081519050919050565b600082825260208201905092915050565b60006109c2826109c9565b9050919050565b600073ffffffffffffffffffffffffffffffffffffffff82169050919050565b6000819050919050565b82818337600083830152505050565b60005b83811015610a20578082015181840152602081019050610a05565b83811115610a2f576000848401525b50505050565b60006002820490506001821680610a4d57607f821691505b60208210811415610a6157610a60610b10565b5b50919050565b610a7082610b82565b810181811067ffffffffffffffff82111715610a8f57610a8e610b3f565b5b80604052505050565b6000610aa3826109e9565b91507fffffffffffffffffffffffffffffffffffffffffffffffffffffffffffffffff821415610ad657610ad5610ae1565b5b600182019050919050565b7f4e487b7100000000000000000000000000000000000000000000000000000000600052601160045260246000fd5b7f4e487b7100000000000000000000000000000000000000000000000000000000600052602260045260246000fd5b7f4e487b7100000000000000000000000000000000000000000000000000000000600052604160045260246000fd5b600080fd5b600080fd5b600080fd5b600080fd5b6000601f19601f8301169050919050565b7f4e6f207477656574206964000000000000000000000000000000000000000000600082015250565b7f506c65617365207375626d697420302e32206574686572000000000000000000600082015250565b7f506c65617365207375626d697420302e31206574686572000000000000000000600082015250565b610c17816109e9565b8114610c2257600080fd5b5056fea264697066735822122070e0cb75ba8c64b2122b57c79cabfe235e358a6e367f46f66dfc21a8ceef37cf64736f6c63430008070033",
  "immutableReferences": {},
  "source": "// SPDX-License-Identifier: MIT\npragma solidity ^0.8.7;\n\ncontract Dwetransfer {\n  address public owner;\n  uint256 private counter;\n\n  constructor(){\n    counter = 0;\n    owner = msg.sender;\n  }\n\n  struct file {\n    uint256 id;\n    address tweeter;\n    string fileUrl;\n  }\n\n  event tweetPublished (\n    uint256 id,\n    address tweeter,\n    string fileUrl\n  );\n\n  event FileGetCid(uint256 id, string fileUrl);\n\n  mapping(uint256 => file) files;\n\n\n  function getFile(uint256 id) public payable returns(uint256 , string memory, address){\n    require(id < counter, \"No tweet id\");\n    require(msg.value == (0.2 ether), \"Please submit 0.2 ether\");\n    file storage item = files[id];\n    payable(owner).transfer(0.1 ether);\n    payable(item.tweeter).transfer(0.1 ether);\n    emit FileGetCid(id, item.fileUrl);\n    return(item.id, item.fileUrl, item.tweeter);\n  }\n\n  function addTweet(string memory fileUrl)public payable returns (uint256){\n    require(msg.value == (0.1 ether), \"Please submit 0.1 ether\");\n    file storage newFile = files[counter];\n    \n    newFile.tweeter = msg.sender;\n    newFile.id = counter;\n    newFile.fileUrl = fileUrl;\n\n    emit tweetPublished(counter, msg.sender, fileUrl);\n    counter++;\n    payable(owner).transfer(msg.value);\n    return(newFile.id);\n  }\n\n\n}",
  "sourcePath": "D:\\NEU\\work\\tttt\\1\\contracts\\Dwetransfer.sol",
  "compiler": {
    "name": "solc",
    "version": "0.8.7+commit.e28d00a7.Emscripten.clang"
  },
  "schemaVersion": "3.4.7",
  "updatedAt": "2022-07-13T01:55:40.622Z",
  "networkType": "ethereum",
  "devdoc": {
    "kind": "dev",
    "methods": {},
    "version": 1
  },
  "userdoc": {
    "kind": "user",
    "methods": {},
    "version": 1
  }
}