{
  "contractName": "Tweets",
  "abi": [
    {
      "inputs": [],
      "stateMutability": "nonpayable",
      "type": "constructor"
    },
    {
      "anonymous": false,
      "inputs": [
        {
          "indexed": false,
          "internalType": "address",
          "name": "tweeter",
          "type": "address"
        },
        {
          "indexed": false,
          "internalType": "uint256",
          "name": "id",
          "type": "uint256"
        },
        {
          "indexed": false,
          "internalType": "string",
          "name": "tweetText",
          "type": "string"
        },
        {
          "indexed": false,
          "internalType": "string",
          "name": "tweetImg",
          "type": "string"
        }
      ],
      "name": "tweetPublished",
      "type": "event"
    },
    {
      "inputs": [],
      "name": "owner",
      "outputs": [
        {
          "internalType": "address",
          "name": "",
          "type": "address"
        }
      ],
      "stateMutability": "view",
      "type": "function",
      "constant": true
    },
    {
      "inputs": [
        {
          "internalType": "uint256",
          "name": "id",
          "type": "uint256"
        }
      ],
      "name": "getTweet",
      "outputs": [
        {
          "internalType": "string",
          "name": "",
          "type": "string"
        },
        {
          "internalType": "string",
          "name": "",
          "type": "string"
        },
        {
          "internalType": "address",
          "name": "",
          "type": "address"
        }
      ],
      "stateMutability": "view",
      "type": "function",
      "constant": true
    },
    {
      "inputs": [
        {
          "internalType": "string",
          "name": "text",
          "type": "string"
        },
        {
          "internalType": "string",
          "name": "img",
          "type": "string"
        }
      ],
      "name": "addTweet",
      "outputs": [],
      "stateMutability": "payable",
      "type": "function",
      "payable": true
    }
  ],
  "bytecode": "0x608060405234801561001057600080fd5b506000600181905550336000806101000a81548173ffffffffffffffffffffffffffffffffffffffff021916908373ffffffffffffffffffffffffffffffffffffffff160217905550610a86806100686000396000f3fe6080604052600436106100345760003560e01c80637e75b408146100395780638da5cb5b14610055578063c3ad5ecb14610080575b600080fd5b610053600480360381019061004e9190610564565b6100bf565b005b34801561006157600080fd5b5061006a610265565b60405161007791906106a6565b60405180910390f35b34801561008c57600080fd5b506100a760048036038101906100a291906105dc565b610289565b6040516100b693929190610714565b60405180910390f35b67016345785d8a00003414610109576040517f08c379a000000000000000000000000000000000000000000000000000000000815260040161010090610779565b60405180910390fd5b600060026000600154815260200190815260200160002090508281600201908051906020019061013a92919061043c565b508181600301908051906020019061015392919061043c565b50338160000160006101000a81548173ffffffffffffffffffffffffffffffffffffffff021916908373ffffffffffffffffffffffffffffffffffffffff16021790555060015481600101819055507f7e701be0f0f2b14f304a22a623c6e1b1dd8cb28aecd9b5d2ce0257635496d5d23360015485856040516101d994939291906106c1565b60405180910390a1600160008154809291906101f4906108ec565b919050555060008054906101000a900473ffffffffffffffffffffffffffffffffffffffff1673ffffffffffffffffffffffffffffffffffffffff166108fc349081150290604051600060405180830381858888f1935050505015801561025f573d6000803e3d6000fd5b50505050565b60008054906101000a900473ffffffffffffffffffffffffffffffffffffffff1681565b606080600060015484106102d2576040517f08c379a00000000000000000000000000000000000000000000000000000000081526004016102c990610759565b60405180910390fd5b600060026000868152602001908152602001600020905080600201816003018260000160009054906101000a900473ffffffffffffffffffffffffffffffffffffffff1682805461032290610889565b80601f016020809104026020016040519081016040528092919081815260200182805461034e90610889565b801561039b5780601f106103705761010080835404028352916020019161039b565b820191906000526020600020905b81548152906001019060200180831161037e57829003601f168201915b505050505092508180546103ae90610889565b80601f01602080910402602001604051908101604052809291908181526020018280546103da90610889565b80156104275780601f106103fc57610100808354040283529160200191610427565b820191906000526020600020905b81548152906001019060200180831161040a57829003601f168201915b50505050509150935093509350509193909250565b82805461044890610889565b90600052602060002090601f01602090048101928261046a57600085556104b1565b82601f1061048357805160ff19168380011785556104b1565b828001600101855582156104b1579182015b828111156104b0578251825591602001919060010190610495565b5b5090506104be91906104c2565b5090565b5b808211156104db5760008160009055506001016104c3565b5090565b60006104f26104ed846107be565b610799565b90508281526020810184848401111561050e5761050d6109c7565b5b610519848285610847565b509392505050565b600082601f830112610536576105356109c2565b5b81356105468482602086016104df565b91505092915050565b60008135905061055e81610a39565b92915050565b6000806040838503121561057b5761057a6109d1565b5b600083013567ffffffffffffffff811115610599576105986109cc565b5b6105a585828601610521565b925050602083013567ffffffffffffffff8111156105c6576105c56109cc565b5b6105d285828601610521565b9150509250929050565b6000602082840312156105f2576105f16109d1565b5b60006106008482850161054f565b91505092915050565b6106128161080b565b82525050565b6000610623826107ef565b61062d81856107fa565b935061063d818560208601610856565b610646816109d6565b840191505092915050565b600061065e600b836107fa565b9150610669826109e7565b602082019050919050565b60006106816017836107fa565b915061068c82610a10565b602082019050919050565b6106a08161083d565b82525050565b60006020820190506106bb6000830184610609565b92915050565b60006080820190506106d66000830187610609565b6106e36020830186610697565b81810360408301526106f58185610618565b905081810360608301526107098184610618565b905095945050505050565b6000606082019050818103600083015261072e8186610618565b905081810360208301526107428185610618565b90506107516040830184610609565b949350505050565b6000602082019050818103600083015261077281610651565b9050919050565b6000602082019050818103600083015261079281610674565b9050919050565b60006107a36107b4565b90506107af82826108bb565b919050565b6000604051905090565b600067ffffffffffffffff8211156107d9576107d8610993565b5b6107e2826109d6565b9050602081019050919050565b600081519050919050565b600082825260208201905092915050565b60006108168261081d565b9050919050565b600073ffffffffffffffffffffffffffffffffffffffff82169050919050565b6000819050919050565b82818337600083830152505050565b60005b83811015610874578082015181840152602081019050610859565b83811115610883576000848401525b50505050565b600060028204905060018216806108a157607f821691505b602082108114156108b5576108b4610964565b5b50919050565b6108c4826109d6565b810181811067ffffffffffffffff821117156108e3576108e2610993565b5b80604052505050565b60006108f78261083d565b91507fffffffffffffffffffffffffffffffffffffffffffffffffffffffffffffffff82141561092a57610929610935565b5b600182019050919050565b7f4e487b7100000000000000000000000000000000000000000000000000000000600052601160045260246000fd5b7f4e487b7100000000000000000000000000000000000000000000000000000000600052602260045260246000fd5b7f4e487b7100000000000000000000000000000000000000000000000000000000600052604160045260246000fd5b600080fd5b600080fd5b600080fd5b600080fd5b6000601f19601f8301169050919050565b7f4e6f207477656574206964000000000000000000000000000000000000000000600082015250565b7f506c65617365207375626d697420302e31206574686572000000000000000000600082015250565b610a428161083d565b8114610a4d57600080fd5b5056fea26469706673582212203c723da2d8eaf8064fd1ace6b193336e1a3f8b7e584ef51810c17a94463da2b664736f6c63430008070033",
  "immutableReferences": {},
  "source": "// SPDX-License-Identifier: MIT\r\npragma solidity ^0.8.7;\r\n\r\ncontract Tweets {\r\n  address public owner;\r\n  uint256 private counter;\r\n\r\n  constructor(){\r\n    counter = 0;\r\n    owner = msg.sender;\r\n  }\r\n\r\n  struct tweet {\r\n    address tweeter;\r\n    uint256 id;\r\n    string tweetText;\r\n    string tweetImg;\r\n  }\r\n\r\n  event tweetPublished (\r\n    address tweeter,\r\n    uint256 id,\r\n    string tweetText,\r\n    string tweetImg\r\n  );\r\n\r\n  mapping(uint256 => tweet) tweets;\r\n\r\n\r\n  function getTweet(uint256 id) public view returns(string memory, string memory, address){\r\n    require(id < counter, \"No tweet id\");\r\n    tweet storage item = tweets[id];\r\n    return(item.tweetText, item.tweetImg, item.tweeter);\r\n  }\r\n\r\n  function addTweet(string memory text, string memory img)public payable {\r\n    require(msg.value == (0.1 ether), \"Please submit 0.1 ether\");\r\n    tweet storage newTweet = tweets[counter];\r\n    newTweet.tweetText = text;\r\n    newTweet.tweetImg = img;\r\n    newTweet.tweeter = msg.sender;\r\n    newTweet.id = counter;\r\n\r\n    emit tweetPublished(msg.sender, counter, text, img);\r\n    counter++;\r\n    payable(owner).transfer(msg.value);\r\n  }\r\n\r\n\r\n}",
  "sourcePath": "D:\\NEU\\work\\Twitter-Example-starter-sc\\contracts\\Tweets.sol",
  "compiler": {
    "name": "solc",
    "version": "0.8.7+commit.e28d00a7.Emscripten.clang"
  },
  "schemaVersion": "3.4.7",
  "updatedAt": "2022-07-11T10:22:52.083Z",
  "networkType": "ethereum",
  "devdoc": {
    "kind": "dev",
    "methods": {},
    "version": 1
  },
  "userdoc": {
    "kind": "user",
    "methods": {},
    "version": 1
  }
}